{
  "_format": "hh-sol-artifact-1",
  "contractName": "MyEpicNFT",
  "sourceName": "contracts/MyEpicNFT.sol",
  "abi": [
    {
      "inputs": [],
      "stateMutability": "nonpayable",
      "type": "constructor"
    },
    {
      "anonymous": false,
      "inputs": [
        {
          "indexed": true,
          "internalType": "address",
          "name": "owner",
          "type": "address"
        },
        {
          "indexed": true,
          "internalType": "address",
          "name": "approved",
          "type": "address"
        },
        {
          "indexed": true,
          "internalType": "uint256",
          "name": "tokenId",
          "type": "uint256"
        }
      ],
      "name": "Approval",
      "type": "event"
    },
    {
      "anonymous": false,
      "inputs": [
        {
          "indexed": true,
          "internalType": "address",
          "name": "owner",
          "type": "address"
        },
        {
          "indexed": true,
          "internalType": "address",
          "name": "operator",
          "type": "address"
        },
        {
          "indexed": false,
          "internalType": "bool",
          "name": "approved",
          "type": "bool"
        }
      ],
      "name": "ApprovalForAll",
      "type": "event"
    },
    {
      "anonymous": false,
      "inputs": [
        {
          "indexed": false,
          "internalType": "address",
          "name": "sender",
          "type": "address"
        },
        {
          "indexed": false,
          "internalType": "uint256",
          "name": "tokenId",
          "type": "uint256"
        }
      ],
      "name": "NewEpicNFTMinted",
      "type": "event"
    },
    {
      "anonymous": false,
      "inputs": [
        {
          "indexed": false,
          "internalType": "uint256",
          "name": "total",
          "type": "uint256"
        }
      ],
      "name": "TotalTokens",
      "type": "event"
    },
    {
      "anonymous": false,
      "inputs": [
        {
          "indexed": true,
          "internalType": "address",
          "name": "from",
          "type": "address"
        },
        {
          "indexed": true,
          "internalType": "address",
          "name": "to",
          "type": "address"
        },
        {
          "indexed": true,
          "internalType": "uint256",
          "name": "tokenId",
          "type": "uint256"
        }
      ],
      "name": "Transfer",
      "type": "event"
    },
    {
      "inputs": [
        {
          "internalType": "address",
          "name": "to",
          "type": "address"
        },
        {
          "internalType": "uint256",
          "name": "tokenId",
          "type": "uint256"
        }
      ],
      "name": "approve",
      "outputs": [],
      "stateMutability": "nonpayable",
      "type": "function"
    },
    {
      "inputs": [
        {
          "internalType": "address",
          "name": "owner",
          "type": "address"
        }
      ],
      "name": "balanceOf",
      "outputs": [
        {
          "internalType": "uint256",
          "name": "",
          "type": "uint256"
        }
      ],
      "stateMutability": "view",
      "type": "function"
    },
    {
      "inputs": [
        {
          "internalType": "uint256",
          "name": "tokenId",
          "type": "uint256"
        }
      ],
      "name": "getApproved",
      "outputs": [
        {
          "internalType": "address",
          "name": "",
          "type": "address"
        }
      ],
      "stateMutability": "view",
      "type": "function"
    },
    {
      "inputs": [],
      "name": "getTotalTokens",
      "outputs": [
        {
          "internalType": "uint256",
          "name": "",
          "type": "uint256"
        }
      ],
      "stateMutability": "view",
      "type": "function"
    },
    {
      "inputs": [
        {
          "internalType": "address",
          "name": "owner",
          "type": "address"
        },
        {
          "internalType": "address",
          "name": "operator",
          "type": "address"
        }
      ],
      "name": "isApprovedForAll",
      "outputs": [
        {
          "internalType": "bool",
          "name": "",
          "type": "bool"
        }
      ],
      "stateMutability": "view",
      "type": "function"
    },
    {
      "inputs": [],
      "name": "makeAnEpicNFT",
      "outputs": [],
      "stateMutability": "nonpayable",
      "type": "function"
    },
    {
      "inputs": [],
      "name": "name",
      "outputs": [
        {
          "internalType": "string",
          "name": "",
          "type": "string"
        }
      ],
      "stateMutability": "view",
      "type": "function"
    },
    {
      "inputs": [
        {
          "internalType": "uint256",
          "name": "tokenId",
          "type": "uint256"
        }
      ],
      "name": "ownerOf",
      "outputs": [
        {
          "internalType": "address",
          "name": "",
          "type": "address"
        }
      ],
      "stateMutability": "view",
      "type": "function"
    },
    {
      "inputs": [
        {
          "internalType": "uint256",
          "name": "tokenId",
          "type": "uint256"
        }
      ],
      "name": "pickRandomColor",
      "outputs": [
        {
          "internalType": "string",
          "name": "",
          "type": "string"
        }
      ],
      "stateMutability": "view",
      "type": "function"
    },
    {
      "inputs": [
        {
          "internalType": "uint256",
          "name": "tokenId",
          "type": "uint256"
        }
      ],
      "name": "pickRandomFirstWord",
      "outputs": [
        {
          "internalType": "string",
          "name": "",
          "type": "string"
        }
      ],
      "stateMutability": "view",
      "type": "function"
    },
    {
      "inputs": [
        {
          "internalType": "uint256",
          "name": "tokenId",
          "type": "uint256"
        }
      ],
      "name": "pickRandomSecondWord",
      "outputs": [
        {
          "internalType": "string",
          "name": "",
          "type": "string"
        }
      ],
      "stateMutability": "view",
      "type": "function"
    },
    {
      "inputs": [
        {
          "internalType": "uint256",
          "name": "tokenId",
          "type": "uint256"
        }
      ],
      "name": "pickRandomThirdWord",
      "outputs": [
        {
          "internalType": "string",
          "name": "",
          "type": "string"
        }
      ],
      "stateMutability": "view",
      "type": "function"
    },
    {
      "inputs": [
        {
          "internalType": "address",
          "name": "from",
          "type": "address"
        },
        {
          "internalType": "address",
          "name": "to",
          "type": "address"
        },
        {
          "internalType": "uint256",
          "name": "tokenId",
          "type": "uint256"
        }
      ],
      "name": "safeTransferFrom",
      "outputs": [],
      "stateMutability": "nonpayable",
      "type": "function"
    },
    {
      "inputs": [
        {
          "internalType": "address",
          "name": "from",
          "type": "address"
        },
        {
          "internalType": "address",
          "name": "to",
          "type": "address"
        },
        {
          "internalType": "uint256",
          "name": "tokenId",
          "type": "uint256"
        },
        {
          "internalType": "bytes",
          "name": "_data",
          "type": "bytes"
        }
      ],
      "name": "safeTransferFrom",
      "outputs": [],
      "stateMutability": "nonpayable",
      "type": "function"
    },
    {
      "inputs": [
        {
          "internalType": "address",
          "name": "operator",
          "type": "address"
        },
        {
          "internalType": "bool",
          "name": "approved",
          "type": "bool"
        }
      ],
      "name": "setApprovalForAll",
      "outputs": [],
      "stateMutability": "nonpayable",
      "type": "function"
    },
    {
      "inputs": [
        {
          "internalType": "bytes4",
          "name": "interfaceId",
          "type": "bytes4"
        }
      ],
      "name": "supportsInterface",
      "outputs": [
        {
          "internalType": "bool",
          "name": "",
          "type": "bool"
        }
      ],
      "stateMutability": "view",
      "type": "function"
    },
    {
      "inputs": [],
      "name": "symbol",
      "outputs": [
        {
          "internalType": "string",
          "name": "",
          "type": "string"
        }
      ],
      "stateMutability": "view",
      "type": "function"
    },
    {
      "inputs": [
        {
          "internalType": "uint256",
          "name": "tokenId",
          "type": "uint256"
        }
      ],
      "name": "tokenURI",
      "outputs": [
        {
          "internalType": "string",
          "name": "",
          "type": "string"
        }
      ],
      "stateMutability": "view",
      "type": "function"
    },
    {
      "inputs": [
        {
          "internalType": "address",
          "name": "from",
          "type": "address"
        },
        {
          "internalType": "address",
          "name": "to",
          "type": "address"
        },
        {
          "internalType": "uint256",
          "name": "tokenId",
          "type": "uint256"
        }
      ],
      "name": "transferFrom",
      "outputs": [],
      "stateMutability": "nonpayable",
      "type": "function"
    }
  ],
  "bytecode": "0x608060405260405180610100016040528060d38152602001620047ee60d3913960089080519060200190620000369291906200082c565b50604051806080016040528060568152602001620048c16056913960099080519060200190620000689291906200082c565b506040518060c001604052806040518060400160405280600481526020017f487567650000000000000000000000000000000000000000000000000000000081525081526020016040518060400160405280600481526020017f457965730000000000000000000000000000000000000000000000000000000081525081526020016040518060400160405280600481526020017f44726f700000000000000000000000000000000000000000000000000000000081525081526020016040518060400160405280600681526020017f55736566756c000000000000000000000000000000000000000000000000000081525081526020016040518060400160405280600581526020017f426c61636b00000000000000000000000000000000000000000000000000000081525081526020016040518060400160405280600781526020017f42726f7468657200000000000000000000000000000000000000000000000000815250815250600a906006620001e6929190620008bd565b506040518060c001604052806040518060400160405280600481526020017f4a616b650000000000000000000000000000000000000000000000000000000081525081526020016040518060400160405280600481526020017f5061756c0000000000000000000000000000000000000000000000000000000081525081526020016040518060400160405280600381526020017f426f62000000000000000000000000000000000000000000000000000000000081525081526020016040518060400160405280600381526020017f576573000000000000000000000000000000000000000000000000000000000081525081526020016040518060400160405280600681526020017f4d696775656c000000000000000000000000000000000000000000000000000081525081526020016040518060400160405280600581526020017f476f48616e000000000000000000000000000000000000000000000000000000815250815250600b90600662000364929190620008bd565b506040518060c001604052806040518060400160405280600581526020017f62616c6c7300000000000000000000000000000000000000000000000000000081525081526020016040518060400160405280600581526020017f73686f747300000000000000000000000000000000000000000000000000000081525081526020016040518060400160405280600481526020017f6a756d700000000000000000000000000000000000000000000000000000000081525081526020016040518060400160405280600481526020017f66616c6c0000000000000000000000000000000000000000000000000000000081525081526020016040518060400160405280600581526020017f736c65657000000000000000000000000000000000000000000000000000000081525081526020016040518060400160405280600581526020017f616e677279000000000000000000000000000000000000000000000000000000815250815250600c906006620004e2929190620008bd565b506040518060c001604052806040518060400160405280600381526020017f726564000000000000000000000000000000000000000000000000000000000081525081526020016040518060400160405280600781526020017f233038433241380000000000000000000000000000000000000000000000000081525081526020016040518060400160405280600581526020017f626c61636b00000000000000000000000000000000000000000000000000000081525081526020016040518060400160405280600681526020017f79656c6c6f77000000000000000000000000000000000000000000000000000081525081526020016040518060400160405280600481526020017f626c75650000000000000000000000000000000000000000000000000000000081525081526020016040518060400160405280600581526020017f677265656e000000000000000000000000000000000000000000000000000000815250815250600d90600662000660929190620008bd565b503480156200066e57600080fd5b506040518060400160405280600981526020017f5371756172654e465400000000000000000000000000000000000000000000008152506040518060400160405280600681526020017f53515541524500000000000000000000000000000000000000000000000000008152508160009080519060200190620006f39291906200082c565b5080600190805190602001906200070c9291906200082c565b5050506200075a6040518060400160405280601e81526020017f54686973206973206d79204e465420636f6e74726163742e20576f61682100008152506200076060201b620012ec1760201c565b62000ade565b6200080081604051602401620007779190620009f2565b6040516020818303038152906040527f41304fac000000000000000000000000000000000000000000000000000000007bffffffffffffffffffffffffffffffffffffffffffffffffffffffff19166020820180517bffffffffffffffffffffffffffffffffffffffffffffffffffffffff83818316178352505050506200080360201b60201c565b50565b60008151905060006a636f6e736f6c652e6c6f679050602083016000808483855afa5050505050565b8280546200083a9062000a68565b90600052602060002090601f0160209004810192826200085e5760008555620008aa565b82601f106200087957805160ff1916838001178555620008aa565b82800160010185558215620008aa579182015b82811115620008a95782518255916020019190600101906200088c565b5b509050620008b9919062000924565b5090565b82805482825590600052602060002090810192821562000911579160200282015b8281111562000910578251829080519060200190620008ff9291906200082c565b5091602001919060010190620008de565b5b50905062000920919062000943565b5090565b5b808211156200093f57600081600090555060010162000925565b5090565b5b808211156200096757600081816200095d91906200096b565b5060010162000944565b5090565b508054620009799062000a68565b6000825580601f106200098d5750620009ae565b601f016020900490600052602060002090810190620009ad919062000924565b5b50565b6000620009be8262000a16565b620009ca818562000a21565b9350620009dc81856020860162000a32565b620009e78162000acd565b840191505092915050565b6000602082019050818103600083015262000a0e8184620009b1565b905092915050565b600081519050919050565b600082825260208201905092915050565b60005b8381101562000a5257808201518184015260208101905062000a35565b8381111562000a62576000848401525b50505050565b6000600282049050600182168062000a8157607f821691505b6020821081141562000a985762000a9762000a9e565b5b50919050565b7f4e487b7100000000000000000000000000000000000000000000000000000000600052602260045260246000fd5b6000601f19601f8301169050919050565b613d008062000aee6000396000f3fe608060405234801561001057600080fd5b50600436106101215760003560e01c806370a08231116100ad578063c575757a11610071578063c575757a1461033e578063c87b56dd1461036e578063de9d132f1461039e578063e985e9c5146103a8578063f08b82e6146103d857610121565b806370a082311461028857806395d89b41146102b8578063a22cb465146102d6578063b187301f146102f2578063b88d4fde1461032257610121565b806323b872dd116100f457806323b872dd146101c05780632de38d68146101dc57806342842e0e1461020c578063514dc8c6146102285780636352211e1461025857610121565b806301ffc9a71461012657806306fdde0314610156578063081812fc14610174578063095ea7b3146101a4575b600080fd5b610140600480360381019061013b91906126f4565b6103f6565b60405161014d9190612e80565b60405180910390f35b61015e6104d8565b60405161016b9190612e9b565b60405180910390f35b61018e60048036038101906101899190612746565b61056a565b60405161019b9190612df0565b60405180910390f35b6101be60048036038101906101b991906126b8565b6105ef565b005b6101da60048036038101906101d591906125b2565b610707565b005b6101f660048036038101906101f19190612746565b610767565b6040516102039190612e9b565b60405180910390f35b610226600480360381019061022191906125b2565b610885565b005b610242600480360381019061023d9190612746565b6108a5565b60405161024f9190612e9b565b60405180910390f35b610272600480360381019061026d9190612746565b6109c3565b60405161027f9190612df0565b60405180910390f35b6102a2600480360381019061029d919061254d565b610a75565b6040516102af919061311b565b60405180910390f35b6102c0610b2d565b6040516102cd9190612e9b565b60405180910390f35b6102f060048036038101906102eb919061267c565b610bbf565b005b61030c60048036038101906103079190612746565b610bd5565b6040516103199190612e9b565b60405180910390f35b61033c60048036038101906103379190612601565b610cf3565b005b61035860048036038101906103539190612746565b610d55565b6040516103659190612e9b565b60405180910390f35b61038860048036038101906103839190612746565b610e73565b6040516103959190612e9b565b60405180910390f35b6103a6610fc5565b005b6103c260048036038101906103bd9190612576565b61124e565b6040516103cf9190612e80565b60405180910390f35b6103e06112e2565b6040516103ed919061311b565b60405180910390f35b60007f80ac58cd000000000000000000000000000000000000000000000000000000007bffffffffffffffffffffffffffffffffffffffffffffffffffffffff1916827bffffffffffffffffffffffffffffffffffffffffffffffffffffffff191614806104c157507f5b5e139f000000000000000000000000000000000000000000000000000000007bffffffffffffffffffffffffffffffffffffffffffffffffffffffff1916827bffffffffffffffffffffffffffffffffffffffffffffffffffffffff1916145b806104d157506104d082611385565b5b9050919050565b6060600080546104e7906133af565b80601f0160208091040260200160405190810160405280929190818152602001828054610513906133af565b80156105605780601f1061053557610100808354040283529160200191610560565b820191906000526020600020905b81548152906001019060200180831161054357829003601f168201915b5050505050905090565b6000610575826113ef565b6105b4576040517f08c379a00000000000000000000000000000000000000000000000000000000081526004016105ab9061309b565b60405180910390fd5b6004600083815260200190815260200160002060009054906101000a900473ffffffffffffffffffffffffffffffffffffffff169050919050565b60006105fa826109c3565b90508073ffffffffffffffffffffffffffffffffffffffff168373ffffffffffffffffffffffffffffffffffffffff16141561066b576040517f08c379a0000000000000000000000000000000000000000000000000000000008152600401610662906130db565b60405180910390fd5b8073ffffffffffffffffffffffffffffffffffffffff1661068a61145b565b73ffffffffffffffffffffffffffffffffffffffff1614806106b957506106b8816106b361145b565b61124e565b5b6106f8576040517f08c379a00000000000000000000000000000000000000000000000000000000081526004016106ef90612fdb565b60405180910390fd5b6107028383611463565b505050565b61071861071261145b565b8261151c565b610757576040517f08c379a000000000000000000000000000000000000000000000000000000000815260040161074e906130fb565b60405180910390fd5b6107628383836115fa565b505050565b6060600061079b61077784611861565b6040516020016107879190612d8a565b604051602081830303815290604052611a0e565b9050600a80549050816107ae919061345b565b9050600a81815481106107ea577f4e487b7100000000000000000000000000000000000000000000000000000000600052603260045260246000fd5b9060005260206000200180546107ff906133af565b80601f016020809104026020016040519081016040528092919081815260200182805461082b906133af565b80156108785780601f1061084d57610100808354040283529160200191610878565b820191906000526020600020905b81548152906001019060200180831161085b57829003601f168201915b5050505050915050919050565b6108a083838360405180602001604052806000815250610cf3565b505050565b606060006108d96108b584611861565b6040516020016108c59190612dce565b604051602081830303815290604052611a0e565b9050600d80549050816108ec919061345b565b9050600d8181548110610928577f4e487b7100000000000000000000000000000000000000000000000000000000600052603260045260246000fd5b90600052602060002001805461093d906133af565b80601f0160208091040260200160405190810160405280929190818152602001828054610969906133af565b80156109b65780601f1061098b576101008083540402835291602001916109b6565b820191906000526020600020905b81548152906001019060200180831161099957829003601f168201915b5050505050915050919050565b6000806002600084815260200190815260200160002060009054906101000a900473ffffffffffffffffffffffffffffffffffffffff169050600073ffffffffffffffffffffffffffffffffffffffff168173ffffffffffffffffffffffffffffffffffffffff161415610a6c576040517f08c379a0000000000000000000000000000000000000000000000000000000008152600401610a639061301b565b60405180910390fd5b80915050919050565b60008073ffffffffffffffffffffffffffffffffffffffff168273ffffffffffffffffffffffffffffffffffffffff161415610ae6576040517f08c379a0000000000000000000000000000000000000000000000000000000008152600401610add90612ffb565b60405180910390fd5b600360008373ffffffffffffffffffffffffffffffffffffffff1673ffffffffffffffffffffffffffffffffffffffff168152602001908152602001600020549050919050565b606060018054610b3c906133af565b80601f0160208091040260200160405190810160405280929190818152602001828054610b68906133af565b8015610bb55780601f10610b8a57610100808354040283529160200191610bb5565b820191906000526020600020905b815481529060010190602001808311610b9857829003601f168201915b5050505050905090565b610bd1610bca61145b565b8383611a41565b5050565b60606000610c09610be584611861565b604051602001610bf59190612d23565b604051602081830303815290604052611a0e565b9050600b8054905081610c1c919061345b565b9050600b8181548110610c58577f4e487b7100000000000000000000000000000000000000000000000000000000600052603260045260246000fd5b906000526020600020018054610c6d906133af565b80601f0160208091040260200160405190810160405280929190818152602001828054610c99906133af565b8015610ce65780601f10610cbb57610100808354040283529160200191610ce6565b820191906000526020600020905b815481529060010190602001808311610cc957829003601f168201915b5050505050915050919050565b610d04610cfe61145b565b8361151c565b610d43576040517f08c379a0000000000000000000000000000000000000000000000000000000008152600401610d3a906130fb565b60405180910390fd5b610d4f84848484611bae565b50505050565b60606000610d89610d6584611861565b604051602001610d759190612d01565b604051602081830303815290604052611a0e565b9050600c8054905081610d9c919061345b565b9050600c8181548110610dd8577f4e487b7100000000000000000000000000000000000000000000000000000000600052603260045260246000fd5b906000526020600020018054610ded906133af565b80601f0160208091040260200160405190810160405280929190818152602001828054610e19906133af565b8015610e665780601f10610e3b57610100808354040283529160200191610e66565b820191906000526020600020905b815481529060010190602001808311610e4957829003601f168201915b5050505050915050919050565b6060610e7e826113ef565b610ebd576040517f08c379a0000000000000000000000000000000000000000000000000000000008152600401610eb49061307b565b60405180910390fd5b6000600660008481526020019081526020016000208054610edd906133af565b80601f0160208091040260200160405190810160405280929190818152602001828054610f09906133af565b8015610f565780601f10610f2b57610100808354040283529160200191610f56565b820191906000526020600020905b815481529060010190602001808311610f3957829003601f168201915b505050505090506000610f67611c0a565b9050600081511415610f7d578192505050610fc0565b600082511115610fb2578082604051602001610f9a929190612c63565b60405160208183030381529060405292505050610fc0565b610fbb84611c21565b925050505b919050565b600a6007541061100a576040517f08c379a000000000000000000000000000000000000000000000000000000000815260040161100190612f9b565b60405180910390fd5b6000611017600754610767565b90506000611026600754610bd5565b90506000611035600754610d55565b9050600083838360405160200161104e93929190612c87565b6040516020818303038152906040529050600061106c6007546108a5565b905060006008826009856040516020016110899493929190612cb8565b604051602081830303815290604052905060006110ce846110a984611cc8565b6040516020016110ba929190612d45565b604051602081830303815290604052611cc8565b90506000816040516020016110e39190612dac565b60405160208183030381529060405290506111326040518060400160405280601581526020017f0a2d2d2d2d2d2d2d2d2d2d2d2d2d2d2d2d2d2d2d2d00000000000000000000008152506112ec565b61113b816112ec565b6111796040518060400160405280601581526020017f2d2d2d2d2d2d2d2d2d2d2d2d2d2d2d2d2d2d2d2d0a00000000000000000000008152506112ec565b61118533600754611e86565b61119160075482611ea4565b6001600760008282546111a491906131e4565b925050819055506111d0604051806060016040528060258152602001613c666025913960075433611f18565b7febb98688741ffa4c7589bf325de30cf7becb63de567842e1ccdb6cb949fdc82c33600754604051611203929190612e57565b60405180910390a17ff74ce94578259e5298d22cc8785df2ffd1125ac8b087d26011e9ed4c83ccc63b60075460405161123c919061311b565b60405180910390a15050505050505050565b6000600560008473ffffffffffffffffffffffffffffffffffffffff1673ffffffffffffffffffffffffffffffffffffffff16815260200190815260200160002060008373ffffffffffffffffffffffffffffffffffffffff1673ffffffffffffffffffffffffffffffffffffffff16815260200190815260200160002060009054906101000a900460ff16905092915050565b6000600754905090565b611382816040516024016113009190612e9b565b6040516020818303038152906040527f41304fac000000000000000000000000000000000000000000000000000000007bffffffffffffffffffffffffffffffffffffffffffffffffffffffff19166020820180517bffffffffffffffffffffffffffffffffffffffffffffffffffffffff8381831617835250505050611fb7565b50565b60007f01ffc9a7000000000000000000000000000000000000000000000000000000007bffffffffffffffffffffffffffffffffffffffffffffffffffffffff1916827bffffffffffffffffffffffffffffffffffffffffffffffffffffffff1916149050919050565b60008073ffffffffffffffffffffffffffffffffffffffff166002600084815260200190815260200160002060009054906101000a900473ffffffffffffffffffffffffffffffffffffffff1673ffffffffffffffffffffffffffffffffffffffff1614159050919050565b600033905090565b816004600083815260200190815260200160002060006101000a81548173ffffffffffffffffffffffffffffffffffffffff021916908373ffffffffffffffffffffffffffffffffffffffff160217905550808273ffffffffffffffffffffffffffffffffffffffff166114d6836109c3565b73ffffffffffffffffffffffffffffffffffffffff167f8c5be1e5ebec7d5bd14f71427d1e84f3dd0314c0f7b2291e5b200ac8c7c3b92560405160405180910390a45050565b6000611527826113ef565b611566576040517f08c379a000000000000000000000000000000000000000000000000000000000815260040161155d90612fbb565b60405180910390fd5b6000611571836109c3565b90508073ffffffffffffffffffffffffffffffffffffffff168473ffffffffffffffffffffffffffffffffffffffff1614806115b357506115b2818561124e565b5b806115f157508373ffffffffffffffffffffffffffffffffffffffff166115d98461056a565b73ffffffffffffffffffffffffffffffffffffffff16145b91505092915050565b8273ffffffffffffffffffffffffffffffffffffffff1661161a826109c3565b73ffffffffffffffffffffffffffffffffffffffff1614611670576040517f08c379a000000000000000000000000000000000000000000000000000000000815260040161166790612f1b565b60405180910390fd5b600073ffffffffffffffffffffffffffffffffffffffff168273ffffffffffffffffffffffffffffffffffffffff1614156116e0576040517f08c379a00000000000000000000000000000000000000000000000000000000081526004016116d790612f5b565b60405180910390fd5b6116eb838383611fe0565b6116f6600082611463565b6001600360008573ffffffffffffffffffffffffffffffffffffffff1673ffffffffffffffffffffffffffffffffffffffff168152602001908152602001600020600082825461174691906132c5565b925050819055506001600360008473ffffffffffffffffffffffffffffffffffffffff1673ffffffffffffffffffffffffffffffffffffffff168152602001908152602001600020600082825461179d91906131e4565b92505081905550816002600083815260200190815260200160002060006101000a81548173ffffffffffffffffffffffffffffffffffffffff021916908373ffffffffffffffffffffffffffffffffffffffff160217905550808273ffffffffffffffffffffffffffffffffffffffff168473ffffffffffffffffffffffffffffffffffffffff167fddf252ad1be2c89b69c2b068fc378daa952ba7f163c4a11628f55a4df523b3ef60405160405180910390a461185c838383611fe5565b505050565b606060008214156118a9576040518060400160405280600181526020017f30000000000000000000000000000000000000000000000000000000000000008152509050611a09565b600082905060005b600082146118db5780806118c490613412565b915050600a826118d4919061323a565b91506118b1565b60008167ffffffffffffffff81111561191d577f4e487b7100000000000000000000000000000000000000000000000000000000600052604160045260246000fd5b6040519080825280601f01601f19166020018201604052801561194f5781602001600182028036833780820191505090505b5090505b60008514611a025760018261196891906132c5565b9150600a85611977919061345b565b603061198391906131e4565b60f81b8183815181106119bf577f4e487b7100000000000000000000000000000000000000000000000000000000600052603260045260246000fd5b60200101907effffffffffffffffffffffffffffffffffffffffffffffffffffffffffffff1916908160001a905350600a856119fb919061323a565b9450611953565b8093505050505b919050565b600081604051602001611a219190612c4c565b6040516020818303038152906040528051906020012060001c9050919050565b8173ffffffffffffffffffffffffffffffffffffffff168373ffffffffffffffffffffffffffffffffffffffff161415611ab0576040517f08c379a0000000000000000000000000000000000000000000000000000000008152600401611aa790612f7b565b60405180910390fd5b80600560008573ffffffffffffffffffffffffffffffffffffffff1673ffffffffffffffffffffffffffffffffffffffff16815260200190815260200160002060008473ffffffffffffffffffffffffffffffffffffffff1673ffffffffffffffffffffffffffffffffffffffff16815260200190815260200160002060006101000a81548160ff0219169083151502179055508173ffffffffffffffffffffffffffffffffffffffff168373ffffffffffffffffffffffffffffffffffffffff167f17307eab39ab6107e8899845ad3d59bd9653f200f220920489ca2b5937696c3183604051611ba19190612e80565b60405180910390a3505050565b611bb98484846115fa565b611bc584848484611fea565b611c04576040517f08c379a0000000000000000000000000000000000000000000000000000000008152600401611bfb90612efb565b60405180910390fd5b50505050565b606060405180602001604052806000815250905090565b6060611c2c826113ef565b611c6b576040517f08c379a0000000000000000000000000000000000000000000000000000000008152600401611c62906130bb565b60405180910390fd5b6000611c75611c0a565b90506000815111611c955760405180602001604052806000815250611cc0565b80611c9f84611861565b604051602001611cb0929190612c63565b6040516020818303038152906040525b915050919050565b60606000825190506000811415611cf15760405180602001604052806000815250915050611e81565b60006003600283611d0291906131e4565b611d0c919061323a565b6004611d18919061326b565b90506000602082611d2991906131e4565b67ffffffffffffffff811115611d68577f4e487b7100000000000000000000000000000000000000000000000000000000600052604160045260246000fd5b6040519080825280601f01601f191660200182016040528015611d9a5781602001600182028036833780820191505090505b5090506000604051806060016040528060408152602001613c8b604091399050600181016020830160005b86811015611e3e5760038101905062ffffff818a015116603f8160121c168401518060081b905060ff603f83600c1c1686015116810190508060081b905060ff603f8360061c1686015116810190508060081b905060ff603f831686015116810190508060e01b90508084526004840193505050611dc5565b506003860660018114611e585760028114611e6857611e73565b613d3d60f01b6002830352611e73565b603d60f81b60018303525b508484525050819450505050505b919050565b611ea0828260405180602001604052806000815250612181565b5050565b611ead826113ef565b611eec576040517f08c379a0000000000000000000000000000000000000000000000000000000008152600401611ee39061303b565b60405180910390fd5b80600660008481526020019081526020016000209080519060200190611f139291906123d9565b505050565b611fb2838383604051602401611f3093929190612ebd565b6040516020818303038152906040527fe3849f79000000000000000000000000000000000000000000000000000000007bffffffffffffffffffffffffffffffffffffffffffffffffffffffff19166020820180517bffffffffffffffffffffffffffffffffffffffffffffffffffffffff8381831617835250505050611fb7565b505050565b60008151905060006a636f6e736f6c652e6c6f679050602083016000808483855afa5050505050565b505050565b505050565b600061200b8473ffffffffffffffffffffffffffffffffffffffff166121dc565b15612174578373ffffffffffffffffffffffffffffffffffffffff1663150b7a0261203461145b565b8786866040518563ffffffff1660e01b81526004016120569493929190612e0b565b602060405180830381600087803b15801561207057600080fd5b505af19250505080156120a157506040513d601f19601f8201168201806040525081019061209e919061271d565b60015b612124573d80600081146120d1576040519150601f19603f3d011682016040523d82523d6000602084013e6120d6565b606091505b5060008151141561211c576040517f08c379a000000000000000000000000000000000000000000000000000000000815260040161211390612efb565b60405180910390fd5b805181602001fd5b63150b7a0260e01b7bffffffffffffffffffffffffffffffffffffffffffffffffffffffff1916817bffffffffffffffffffffffffffffffffffffffffffffffffffffffff191614915050612179565b600190505b949350505050565b61218b83836121ff565b6121986000848484611fea565b6121d7576040517f08c379a00000000000000000000000000000000000000000000000000000000081526004016121ce90612efb565b60405180910390fd5b505050565b6000808273ffffffffffffffffffffffffffffffffffffffff163b119050919050565b600073ffffffffffffffffffffffffffffffffffffffff168273ffffffffffffffffffffffffffffffffffffffff16141561226f576040517f08c379a00000000000000000000000000000000000000000000000000000000081526004016122669061305b565b60405180910390fd5b612278816113ef565b156122b8576040517f08c379a00000000000000000000000000000000000000000000000000000000081526004016122af90612f3b565b60405180910390fd5b6122c460008383611fe0565b6001600360008473ffffffffffffffffffffffffffffffffffffffff1673ffffffffffffffffffffffffffffffffffffffff168152602001908152602001600020600082825461231491906131e4565b92505081905550816002600083815260200190815260200160002060006101000a81548173ffffffffffffffffffffffffffffffffffffffff021916908373ffffffffffffffffffffffffffffffffffffffff160217905550808273ffffffffffffffffffffffffffffffffffffffff16600073ffffffffffffffffffffffffffffffffffffffff167fddf252ad1be2c89b69c2b068fc378daa952ba7f163c4a11628f55a4df523b3ef60405160405180910390a46123d560008383611fe5565b5050565b8280546123e5906133af565b90600052602060002090601f016020900481019282612407576000855561244e565b82601f1061242057805160ff191683800117855561244e565b8280016001018555821561244e579182015b8281111561244d578251825591602001919060010190612432565b5b50905061245b919061245f565b5090565b5b80821115612478576000816000905550600101612460565b5090565b600061248f61248a8461315b565b613136565b9050828152602081018484840111156124a757600080fd5b6124b284828561336d565b509392505050565b6000813590506124c981613c09565b92915050565b6000813590506124de81613c20565b92915050565b6000813590506124f381613c37565b92915050565b60008151905061250881613c37565b92915050565b600082601f83011261251f57600080fd5b813561252f84826020860161247c565b91505092915050565b60008135905061254781613c4e565b92915050565b60006020828403121561255f57600080fd5b600061256d848285016124ba565b91505092915050565b6000806040838503121561258957600080fd5b6000612597858286016124ba565b92505060206125a8858286016124ba565b9150509250929050565b6000806000606084860312156125c757600080fd5b60006125d5868287016124ba565b93505060206125e6868287016124ba565b92505060406125f786828701612538565b9150509250925092565b6000806000806080858703121561261757600080fd5b6000612625878288016124ba565b9450506020612636878288016124ba565b935050604061264787828801612538565b925050606085013567ffffffffffffffff81111561266457600080fd5b6126708782880161250e565b91505092959194509250565b6000806040838503121561268f57600080fd5b600061269d858286016124ba565b92505060206126ae858286016124cf565b9150509250929050565b600080604083850312156126cb57600080fd5b60006126d9858286016124ba565b92505060206126ea85828601612538565b9150509250929050565b60006020828403121561270657600080fd5b6000612714848285016124e4565b91505092915050565b60006020828403121561272f57600080fd5b600061273d848285016124f9565b91505092915050565b60006020828403121561275857600080fd5b600061276684828501612538565b91505092915050565b612778816132f9565b82525050565b6127878161330b565b82525050565b6000612798826131a1565b6127a281856131b7565b93506127b281856020860161337c565b6127bb81613548565b840191505092915050565b60006127d1826131ac565b6127db81856131c8565b93506127eb81856020860161337c565b6127f481613548565b840191505092915050565b600061280a826131ac565b61281481856131d9565b935061282481856020860161337c565b80840191505092915050565b6000815461283d816133af565b61284781866131d9565b945060018216600081146128625760018114612873576128a6565b60ff198316865281860193506128a6565b61287c8561318c565b60005b8381101561289e5781548189015260018201915060208101905061287f565b838801955050505b50505092915050565b60006128bc6032836131c8565b91506128c782613559565b604082019050919050565b60006128df6025836131c8565b91506128ea826135a8565b604082019050919050565b6000612902601c836131c8565b915061290d826135f7565b602082019050919050565b6000612925600a836131d9565b915061293082613620565b600a82019050919050565b60006129486024836131c8565b915061295382613649565b604082019050919050565b600061296b6019836131c8565b915061297682613698565b602082019050919050565b600061298e6063836131d9565b9150612999826136c1565b606382019050919050565b60006129b1603c836131c8565b91506129bc8261375c565b604082019050919050565b60006129d4600b836131d9565b91506129df826137ab565b600b82019050919050565b60006129f7602c836131c8565b9150612a02826137d4565b604082019050919050565b6000612a1a600d836131d9565b9150612a2582613823565b600d82019050919050565b6000612a3d6038836131c8565b9150612a488261384c565b604082019050919050565b6000612a60602a836131c8565b9150612a6b8261389b565b604082019050919050565b6000612a836029836131c8565b9150612a8e826138ea565b604082019050919050565b6000612aa6602e836131c8565b9150612ab182613939565b604082019050919050565b6000612ac96002836131d9565b9150612ad482613988565b600282019050919050565b6000612aec6020836131c8565b9150612af7826139b1565b602082019050919050565b6000612b0f6031836131c8565b9150612b1a826139da565b604082019050919050565b6000612b32602c836131c8565b9150612b3d82613a29565b604082019050919050565b6000612b55602f836131c8565b9150612b6082613a78565b604082019050919050565b6000612b78600a836131d9565b9150612b8382613ac7565b600a82019050919050565b6000612b9b6021836131c8565b9150612ba682613af0565b604082019050919050565b6000612bbe600a836131d9565b9150612bc982613b3f565b600a82019050919050565b6000612be1601d836131d9565b9150612bec82613b68565b601d82019050919050565b6000612c046031836131c8565b9150612c0f82613b91565b604082019050919050565b6000612c276005836131d9565b9150612c3282613be0565b600582019050919050565b612c4681613363565b82525050565b6000612c5882846127ff565b915081905092915050565b6000612c6f82856127ff565b9150612c7b82846127ff565b91508190509392505050565b6000612c9382866127ff565b9150612c9f82856127ff565b9150612cab82846127ff565b9150819050949350505050565b6000612cc48287612830565b9150612cd082866127ff565b9150612cdc8285612830565b9150612ce882846127ff565b9150612cf382612a0d565b915081905095945050505050565b6000612d0c82612918565b9150612d1882846127ff565b915081905092915050565b6000612d2e826129c7565b9150612d3a82846127ff565b915081905092915050565b6000612d5082612b6b565b9150612d5c82856127ff565b9150612d6782612981565b9150612d7382846127ff565b9150612d7e82612abc565b91508190509392505050565b6000612d9582612bb1565b9150612da182846127ff565b915081905092915050565b6000612db782612bd4565b9150612dc382846127ff565b915081905092915050565b6000612dd982612c1a565b9150612de582846127ff565b915081905092915050565b6000602082019050612e05600083018461276f565b92915050565b6000608082019050612e20600083018761276f565b612e2d602083018661276f565b612e3a6040830185612c3d565b8181036060830152612e4c818461278d565b905095945050505050565b6000604082019050612e6c600083018561276f565b612e796020830184612c3d565b9392505050565b6000602082019050612e95600083018461277e565b92915050565b60006020820190508181036000830152612eb581846127c6565b905092915050565b60006060820190508181036000830152612ed781866127c6565b9050612ee66020830185612c3d565b612ef3604083018461276f565b949350505050565b60006020820190508181036000830152612f14816128af565b9050919050565b60006020820190508181036000830152612f34816128d2565b9050919050565b60006020820190508181036000830152612f54816128f5565b9050919050565b60006020820190508181036000830152612f748161293b565b9050919050565b60006020820190508181036000830152612f948161295e565b9050919050565b60006020820190508181036000830152612fb4816129a4565b9050919050565b60006020820190508181036000830152612fd4816129ea565b9050919050565b60006020820190508181036000830152612ff481612a30565b9050919050565b6000602082019050818103600083015261301481612a53565b9050919050565b6000602082019050818103600083015261303481612a76565b9050919050565b6000602082019050818103600083015261305481612a99565b9050919050565b6000602082019050818103600083015261307481612adf565b9050919050565b6000602082019050818103600083015261309481612b02565b9050919050565b600060208201905081810360008301526130b481612b25565b9050919050565b600060208201905081810360008301526130d481612b48565b9050919050565b600060208201905081810360008301526130f481612b8e565b9050919050565b6000602082019050818103600083015261311481612bf7565b9050919050565b60006020820190506131306000830184612c3d565b92915050565b6000613140613151565b905061314c82826133e1565b919050565b6000604051905090565b600067ffffffffffffffff82111561317657613175613519565b5b61317f82613548565b9050602081019050919050565b60008190508160005260206000209050919050565b600081519050919050565b600081519050919050565b600082825260208201905092915050565b600082825260208201905092915050565b600081905092915050565b60006131ef82613363565b91506131fa83613363565b9250827fffffffffffffffffffffffffffffffffffffffffffffffffffffffffffffffff0382111561322f5761322e61348c565b5b828201905092915050565b600061324582613363565b915061325083613363565b9250826132605761325f6134bb565b5b828204905092915050565b600061327682613363565b915061328183613363565b9250817fffffffffffffffffffffffffffffffffffffffffffffffffffffffffffffffff04831182151516156132ba576132b961348c565b5b828202905092915050565b60006132d082613363565b91506132db83613363565b9250828210156132ee576132ed61348c565b5b828203905092915050565b600061330482613343565b9050919050565b60008115159050919050565b60007fffffffff0000000000000000000000000000000000000000000000000000000082169050919050565b600073ffffffffffffffffffffffffffffffffffffffff82169050919050565b6000819050919050565b82818337600083830152505050565b60005b8381101561339a57808201518184015260208101905061337f565b838111156133a9576000848401525b50505050565b600060028204905060018216806133c757607f821691505b602082108114156133db576133da6134ea565b5b50919050565b6133ea82613548565b810181811067ffffffffffffffff8211171561340957613408613519565b5b80604052505050565b600061341d82613363565b91507fffffffffffffffffffffffffffffffffffffffffffffffffffffffffffffffff8214156134505761344f61348c565b5b600182019050919050565b600061346682613363565b915061347183613363565b925082613481576134806134bb565b5b828206905092915050565b7f4e487b7100000000000000000000000000000000000000000000000000000000600052601160045260246000fd5b7f4e487b7100000000000000000000000000000000000000000000000000000000600052601260045260246000fd5b7f4e487b7100000000000000000000000000000000000000000000000000000000600052602260045260246000fd5b7f4e487b7100000000000000000000000000000000000000000000000000000000600052604160045260246000fd5b6000601f19601f8301169050919050565b7f4552433732313a207472616e7366657220746f206e6f6e20455243373231526560008201527f63656976657220696d706c656d656e7465720000000000000000000000000000602082015250565b7f4552433732313a207472616e736665722066726f6d20696e636f72726563742060008201527f6f776e6572000000000000000000000000000000000000000000000000000000602082015250565b7f4552433732313a20746f6b656e20616c7265616479206d696e74656400000000600082015250565b7f54484952445f574f524400000000000000000000000000000000000000000000600082015250565b7f4552433732313a207472616e7366657220746f20746865207a65726f2061646460008201527f7265737300000000000000000000000000000000000000000000000000000000602082015250565b7f4552433732313a20617070726f766520746f2063616c6c657200000000000000600082015250565b7f222c20226465736372697074696f6e223a20224120686967686c79206163636c60008201527f61696d656420636f6c6c656374696f6e206f6620737175617265732e222c202260208201527f696d616765223a2022646174613a696d6167652f7376672b786d6c3b6261736560408201527f36342c0000000000000000000000000000000000000000000000000000000000606082015250565b7f5468657265206973206e6f206d6f7265204e4654277320617661696c61626c6560008201527f2e20576520616c7265616479206d696e746564203130204e4654277300000000602082015250565b7f5345434f4e445f574f5244000000000000000000000000000000000000000000600082015250565b7f4552433732313a206f70657261746f7220717565727920666f72206e6f6e657860008201527f697374656e7420746f6b656e0000000000000000000000000000000000000000602082015250565b7f3c2f746578743e3c2f7376673e00000000000000000000000000000000000000600082015250565b7f4552433732313a20617070726f76652063616c6c6572206973206e6f74206f7760008201527f6e6572206e6f7220617070726f76656420666f7220616c6c0000000000000000602082015250565b7f4552433732313a2062616c616e636520717565727920666f7220746865207a6560008201527f726f206164647265737300000000000000000000000000000000000000000000602082015250565b7f4552433732313a206f776e657220717565727920666f72206e6f6e657869737460008201527f656e7420746f6b656e0000000000000000000000000000000000000000000000602082015250565b7f45524337323155524953746f726167653a2055524920736574206f66206e6f6e60008201527f6578697374656e7420746f6b656e000000000000000000000000000000000000602082015250565b7f227d000000000000000000000000000000000000000000000000000000000000600082015250565b7f4552433732313a206d696e7420746f20746865207a65726f2061646472657373600082015250565b7f45524337323155524953746f726167653a2055524920717565727920666f722060008201527f6e6f6e6578697374656e7420746f6b656e000000000000000000000000000000602082015250565b7f4552433732313a20617070726f76656420717565727920666f72206e6f6e657860008201527f697374656e7420746f6b656e0000000000000000000000000000000000000000602082015250565b7f4552433732314d657461646174613a2055524920717565727920666f72206e6f60008201527f6e6578697374656e7420746f6b656e0000000000000000000000000000000000602082015250565b7f7b226e616d65223a202200000000000000000000000000000000000000000000600082015250565b7f4552433732313a20617070726f76616c20746f2063757272656e74206f776e6560008201527f7200000000000000000000000000000000000000000000000000000000000000602082015250565b7f46495253545f574f524400000000000000000000000000000000000000000000600082015250565b7f646174613a6170706c69636174696f6e2f6a736f6e3b6261736536342c000000600082015250565b7f4552433732313a207472616e736665722063616c6c6572206973206e6f74206f60008201527f776e6572206e6f7220617070726f766564000000000000000000000000000000602082015250565b7f434f4c4f52000000000000000000000000000000000000000000000000000000600082015250565b613c12816132f9565b8114613c1d57600080fd5b50565b613c298161330b565b8114613c3457600080fd5b50565b613c4081613317565b8114613c4b57600080fd5b50565b613c5781613363565b8114613c6257600080fd5b5056fe416e204e465420772f20494420257320686173206265656e206d696e74656420746f2025734142434445464748494a4b4c4d4e4f505152535455565758595a6162636465666768696a6b6c6d6e6f707172737475767778797a303132333435363738392b2fa26469706673582212202b48bb88d72feec55d7d662aedc71d47e2ea9989c44d73949a86ad2ac0a66fe964736f6c634300080100333c73766720786d6c6e733d27687474703a2f2f7777772e77332e6f72672f323030302f73766727207072657365727665417370656374526174696f3d27784d696e594d696e206d656574272076696577426f783d273020302033353020333530273e3c7374796c653e2e62617365207b2066696c6c3a2077686974653b20666f6e742d66616d696c793a2073657269663b20666f6e742d73697a653a20323470783b207d3c2f7374796c653e3c726563742077696474683d273130302527206865696768743d2731303025272066696c6c3d27272f3e3c7465787420783d273530252720793d273530252720636c6173733d27626173652720646f6d696e616e742d626173656c696e653d276d6964646c652720746578742d616e63686f723d276d6964646c65273e",
  "linkReferences": {},
  "deployedLinkReferences": {}
}